{
  "_format": "hh-sol-artifact-1",
  "contractName": "CertificateRegistry",
  "sourceName": "contracts/CertificateRegistry.sol",
  "abi": [
    {
      "anonymous": false,
      "inputs": [
        {
          "indexed": true,
          "internalType": "bytes32",
          "name": "hash",
          "type": "bytes32"
        },
        {
          "indexed": false,
          "internalType": "string",
          "name": "certificateId",
          "type": "string"
        },
        {
          "indexed": true,
          "internalType": "address",
          "name": "issuer",
          "type": "address"
        }
      ],
      "name": "CertificateSet",
      "type": "event"
    },
    {
      "inputs": [
        {
          "internalType": "bytes32[]",
          "name": "hashes",
          "type": "bytes32[]"
        },
        {
          "internalType": "string[]",
          "name": "ids",
          "type": "string[]"
        }
      ],
      "name": "batchSetCertificates",
      "outputs": [],
      "stateMutability": "nonpayable",
      "type": "function"
    },
    {
      "inputs": [
        {
          "internalType": "bytes32",
          "name": "",
          "type": "bytes32"
        }
      ],
      "name": "exists",
      "outputs": [
        {
          "internalType": "bool",
          "name": "",
          "type": "bool"
        }
      ],
      "stateMutability": "view",
      "type": "function"
    }
  ],
  "bytecode": "0x608060405234801561001057600080fd5b5061035e806100206000396000f3fe608060405234801561001057600080fd5b50600436106100365760003560e01c806338a699a41461003b578063ccf5fb7814610072575b600080fd5b61005e6100493660046101a4565b60006020819052908152604090205460ff1681565b604051901515815260200160405180910390f35b610085610080366004610209565b610087565b005b8281146100cc5760405162461bcd60e51b815260206004820152600f60248201526e0d8cadccee8d040dad2e6dac2e8c6d608b1b604482015260640160405180910390fd5b60005b8381101561019d5760016000808787858181106100ee576100ee610275565b60209081029290920135835250810191909152604001600020805460ff19169115159190911790553385858381811061012957610129610275565b905060200201357f878f68a56d1eefb28677913242932e301023f8d157134a4d1472428f922f0b4a85858581811061016357610163610275565b9050602002810190610175919061028b565b6040516101839291906102d2565b60405180910390a38061019581610301565b9150506100cf565b5050505050565b6000602082840312156101b657600080fd5b5035919050565b60008083601f8401126101cf57600080fd5b50813567ffffffffffffffff8111156101e757600080fd5b6020830191508360208260051b850101111561020257600080fd5b9250929050565b6000806000806040858703121561021f57600080fd5b843567ffffffffffffffff8082111561023757600080fd5b610243888389016101bd565b9096509450602087013591508082111561025c57600080fd5b50610269878288016101bd565b95989497509550505050565b634e487b7160e01b600052603260045260246000fd5b6000808335601e198436030181126102a257600080fd5b83018035915067ffffffffffffffff8211156102bd57600080fd5b60200191503681900382131561020257600080fd5b60208152816020820152818360408301376000818301604090810191909152601f909201601f19160101919050565b60006001820161032157634e487b7160e01b600052601160045260246000fd5b506001019056fea26469706673582212207b70d5cc0bbc9dd7c09f1ac2cdc276b4dacf6ad78055f1f75db591c0a96eb70f64736f6c63430008140033",
  "linkReferences": {},
  "deployedLinkReferences": {}
}